:10000000F8FF00201104000015300000153000003A
:1000100015300000153000001530000015300000CC
:1000200015300000153000001530000015300000BC
:1000300015300000153000001530000015300000AC
:10004000153000001530000015300000153000009C
:10040000FFFFFFFFFFFFFFFFFFFFFFFFFEFFFFFFFD
:1004100062B606F079FFFEE72DE9F04FA1B0824603
:1004200001AE002017461D467160B0620DF144090F
:100430000AE017F8011B7068D0470028706000F0D0
:10044000B382B06A401CB0623878010001D1B06A52
:10045000ACE22528EDD1002030617061B061F0611F
:100460003062706201E040F0010017F8011F20299E
:10047000F9D023290DD02B2904D02D2906D03029DD
:100480000AD00CE040F0020080B2EEE740F0040039
:10049000FAE740F00800F7E740F01000F4E72A29F7
:1004A0000ED12968296051F8042B2960002A326393
:1004B00004D5514240F00400316380B27F1C13E048
:1004C000002131630BE0316B6FF00043994205D09E
:1004D00001EB810302EB4301303931637F1C3A7831
:1004E000A2F130010A29EED339782E2903D04FF03A
:1004F000FF31F1621FE017F8011F2A2907D129688F
:1005000029607F1C51F8042B2960F26213E000215E
:10051000F1620BE0F16A6FF00043994205D001EB04
:10052000810302EB43013039F1627F1C3A78A2F17A
:1005300030010A29EED3B0860FF6DC20397800F0BE
:1005400079FD08B117F8010B8DF83A009DF83A00D3
:10055000682802BF39786829622005D06C2804BF5A
:1005600038786C2803D171208DF83A007F1C11A8CF
:10057000F06017F8014BB4F1250024D02038022890
:1005800040F2C380133800F0E7800B3800F054814C
:10059000401E00F02B81401E022840F2B680001F52
:1005A00000F02481401F00F08180401E00F0D480C4
:1005B000401E26D0C01E0BD0801E00F0CD80C01E75
:1005C00000F0CA8042E125208DF84400012046E178
:1005D0002868286050F8048B2860C6F80880F46A00
:1005E000002C04D5404600F031FD044607E02246C9
:1005F0000021404600F046FD08B1A0EB08047461FC
:100600002EE129682960002251F8040B29604FF07F
:100610003C0E0021CDE9000111A8B060DDE9000128
:100620009142F46808BF904201D1F26AC2B100F071
:100630000F033033DBB23A2BA8BF2733AEF10102F0
:100640000009A354964640EA01700909002291422C
:1006500008BF904204D0B26804EB0E039A42E6D37E
:1006600004EB0E01B160CEF13C00F16A706188428A
:1006700007DA081AF0614FF6EF71B08E0840B086C5
:10068000EEE0002940F1EC8096F8341001F01401FE
:10069000102940F0E580316B3269891AF269891AB4
:1006A000081A0128C0F2DC80F061D9E09DF83A0018
:1006B00062281AD0682806D06A280CD06C281CD072
:1006C000712808D019E02868286050F8041B2860B9
:1006D000B06A0880C4E02868286050F8042B2860BD
:1006E000B06AC117C2E90001BAE02868286050F872
:1006F000041B2860B06A0870B2E02868286050F8CF
:10070000041B2860B06A0860AAE02868C01D20F0B9
:1007100007022A60D2E9000108322A60CDE900010F
:10072000002902D530692D2109E0B08E810702D55C
:1007300030692B2103E0C00705D53069202109F875
:100740000010401C306111A831690844B060214696
:10075000684600F0EBF983E09DF83A006C280DD074
:10076000712818BF6A2809D12868C01D20F0070227
:100770002A60D2E9000108322A6005E02968296070
:1007800051F8040B29600021CDE900019DF83A00E1
:10079000682803D1DDE9000180B20BE0622803D1B3
:1007A000DDE90001C0B205E0742818BF7A2804D141
:1007B000DDE900010021CDE9000196F834000007D1
:1007C00031D5DDE900230020834208BF82422AD0D0
:1007D00044F02000782826D13069302109F8001033
:1007E000401C411C316109F800401CE09DF83A00B2
:1007F000294600F0DEF8CDE90001DDE90023002103
:100800008B4202DA30692D2109E0B08E810702D5D2
:1008100030692B2103E0C00705D53069202109F894
:100820000010401C306111A831690844B0602146B5
:10083000684600F0F5F813E0012030612868286070
:1008400050F8041B28608DF8441009E025208DF82D
:100850004400012030611CB189F801400220306160
:10086000306B3169401AF169401A7169401A316A76
:10087000401AB169401A716AA0EB010896F8340079
:10088000400711D42020B8F1010F8DF840000BDB98
:100890004446012310AA6946504600F0A5FB0028F3
:1008A00040F08280641EF4D1D6F810B0BBF1000F86
:1008B00011AC0CD014F8011B7068D0470028706090
:1008C00072D0B06A401CBBF1010BB062F2D1302093
:1008D0008DF84000F469012C09DB012310AA694658
:1008E000504600F081FB00285ED1641EF5D1D6F899
:1008F00014B0B468BBF1000F0CD014F8011B706881
:10090000D047002870604FD0B06A401CBBF1010B8B
:10091000B062F2D130208DF84000346A012C09DB3E
:10092000012310AA6946504600F05EFB00283BD127
:10093000641EF5D1B0687169D6F818B04418BBF1DF
:10094000000F0BD014F8011B7068D047706058B3CB
:10095000B06A401CBBF1010BB062F3D130208DF8BE
:100960004000746A012C08DB012310AA6946504636
:1009700000F03AFBC0B9641EF6D196F83400400787
:100980007FF562AD2020B8F1010F8DF84000FFF631
:100990005BAD012310AA6946504600F025FB18B94B
:1009A000B8F10108F5D14FE54FF0FF3021B0BDE8B7
:1009B000F08F622826D068281DD06A2808D06C28BD
:1009C00027D0712804D0742823D07A280CD020E0B6
:1009D0000868C01D20F007000860D0E90023083037
:1009E00008601946104670470A680A6052F8040BFE
:1009F0000A60002170470A680A6052F8040B0A6016
:100A000000B20BE00A680A6052F8040B0A6040B2B8
:100A100004E00A680A6052F8040B0A60C1177047C4
:100A20002DE9F343054608462F696F2808BF0824BF
:100A300005D041F02001782914BF0A2410243C2657
:100A4000D5E90023642818BF69289046994606D145
:100A500000218B4203DAD8F1000869EB4909002034
:100A6000814508BF80450CD1286B50B9082C38D17E
:100A700095F83800000734D530203B2687F83B0036
:100A80002FE0701E00900646404649462246E31776
:100A900000F024FB02F13000C0B23A2803DB9DF8DD
:100AA000041051390818B855494640462246E31704
:100AB00000F014FB804689460020814508BF804530
:100AC00003D0E868B9198842DBD3082C09D195F81E
:100AD0003800000705D5B85D302802D0761E3020DA
:100AE000B855B919E960C6F13C00296BA861884284
:100AF00008DA081A28624FF6EF71288F0840288715
:100B0000BDE8F38300290ED595F8381001F01401E3
:100B1000102908D1696B6A69891A2A6A891A0E1A1A
:100B2000012EA8BF2E62BDE8F38300002DE9F34F2C
:100B30008BB0D0E90089006B002801AF48BF0620C8
:100B400005D404BF41F02000672802D101200B9991
:100B5000086340F2FF720B984168C1F30A5090425B
:100B600020D1080302BF0B98006800280AD10B9916
:100B7000032088619DF8300061381A2858D30FF29D
:100B8000AC4109E00B99032088619DF83000613881
:100B90001A284AD30FF28C410B98C068032200F048
:100BA00015FBFFE0012807DA0B9800F04AFB01284B
:100BB00002DB00230026ECE00B9ADFF854B1526808
:100BC00040F2FE3161F31E520B994A6040F2FE3151
:100BD000401A00B247F2975148434E4990FBF1F654
:100BE000404649460022002300F04EFB36B238BF93
:100BF00089F00049C6F10707012F92461BDBF80771
:100C000007D552465B464046494600F055FB8046B4
:100C100089465046594652465B467F1000F04CFBD1
:100C2000002F82468B46EAD126E00FF2F431B3E77B
:100C30000FF2F431B0E77F420024374D12E0F8079D
:100C400007D552465B462046294600F035FB044650
:100C50000D465046594652465B4600F02DFB7F102C
:100C600082468B46002FEAD14046494622462B4613
:100C700000F0F4FB804689469DF830000B99DFF8C0
:100C80009CB0096B40F02005662D0CBF06F10A00F0
:100C900006204718142FA8BF132730208DF8040012
:100CA0000DF10504012F3BDB4046494600F018FDDD
:100CB000014604F1080204234FF00A0CB1FBFCFCCE
:100CC0000CEB8C04A1EB4401303102F8011C0A2129
:100CD000BCFBF1FE0EEB8E04ACEB440430345B1E27
:100CE000714602F8024DE7D1083F012F02F10804D6
:100CF000D8DB00F015FD02460B464046494600F0A1
:100D00001DFD00225B4600F0D7FA80468946CBE7FE
:100D100000002440A08601000000F03F84D79741E6
:100D20000DF10500201A0DF1050702E0401E761EA8
:100D30007F1C39783029F9D0662D08BF711C03D08B
:100D4000652D0CBF012100210B9A126B8B181BB271
:100D50009842B8BF03461BB219001AD4814204DA84
:100D6000785C3528A8BF392000DA30207A18521E66
:100D700000E05B1E12F80149491E8442F9D039286F
:100D800002D1785C401C7854002902D57F1E5B1C80
:100D9000761C36B29DF830100B9800961BB23A467E
:100DA00000F003F80DB0BDE8F08F2DE9F04786B0F4
:100DB00006468A4690461D4600F09DFD012D406A7C
:100DC000376B90F8009002DA01250FF264284AF0A0
:100DD0002000BDF93840662808BF641C13D067287E
:100DE00040F08A8014F1040F75DBBC4273DA96F888
:100DF0003800641C000702D4BD42B8BF2F4624B29D
:100E00003F1B48BF002724B2F068B169012C23DAE8
:100E10004A1C30234354012F03DA96F838000007A8
:100E200003D5F06800F80290521CE742B8BF7C423C
:100E300024B260427062E719AF42B261B8BF3D466A
:100E4000F068B3692DB2F5612A464146184400F0B6
:100E5000BDF9781BB062B0E022469542084416DA2C
:100E60002A46414600F0B2F9B1696918601B012FAA
:100E7000B161706203DA96F83800000705D5F068B2
:100E800000F80190F069401CF061B76295E04146BE
:100E900000F09CF9B06920182D1B012F03DA96F899
:100EA0003810090703D5F16801F80090401CB061C3
:100EB0002DB2AF42B8BF3D46F068B3692DB22A46A5
:100EC00008EB0401184400F081F9B0692818B061FA
:100ED000781B706271E0BD4204DA96F83810090799
:100EE00058BF2F467F1E48BF0027BAF1670F0CBFBF
:100EF0004FF0650A4FF0450AB169F368481CB061CC
:100F0000012F18F8012B5A5403DA96F83810090704
:100F100017D5F168431CB36101F80090012F10DB75
:100F20006D1E2DB2AF42B8BF3D46F0682DB22A46C5
:100F30004146184400F04AF9B0692818B061781B9E
:100F40007062F068B1690144200081F800A004D407
:100F50002B20487001F1020804E02D224A7001F1B3
:100F600002086442002502AF08E00A22684600F049
:100F7000DBFC019807F8010B6D1C009C21B20129D4
:100F8000F3DA022D06DA4AF02000652804BF30208B
:100F900008F8010B4DB9302008F8010B07E06D1E71
:100FA00002A8405D303008F8010B012DF7DAF06837
:100FB000B1690844A8EB0000F06196F8380000F031
:100FC000140010280DD17069B1690818716A0818E9
:100FD000F1690818B16A0818716B8842BCBF081A19
:100FE000306206B0BDE8F087F8B504460D461646F7
:100FF0001F46002077B116F8011BA868A047A8601B
:1010000030B1E86A401CE86200207F1EF3D1F2BDD7
:101010004FF0FF30F2BD0000686A6C747A4C00003B
:101020006E616E004E414E00696E6600494E46008C
:10103000300003FC0278C9B28A421AB11CBF10F812
:10104000012FF9E718BF00207047FC0300F10103EE
:10105000810704D010F8011B89B18107FAD1026819
:10106000B2F10131914311F0803F04BF50F8042FD9
:10107000F6E710F8011B11B110F8011BFBE7C01ACD
:1010800070470000C9B2830706D0521E22D310F861
:10109000013B9942F7D11FE0083A13D302F1040251
:1010A00041EA012141EA014150F8043B121F21BFEE
:1010B0004B40A3F1013C2CEA030C1CF0803FF3D021
:1010C000C9B2001F083210F8013B521E28BF91EA36
:1010D000030FF8D818BF0120401E70471B4213D1E0
:1010E000094236D12AB18446B0FBF2F002FB10C2AD
:1010F000704700F021BCFCD30022002370470B0096
:101100000200002100207047904271EB030CF6D3DF
:1011100070B5B1FA81F4B3FA83F52C1BA340C4F186
:10112000200532FA05F63343A2405FF00046E64060
:1011300002E05B085FEA3202841A71EB030524BF08
:10114000204629467641F4D302000B0030000021EE
:1011500070BD012ACFD970B5140C20D0B1FA81F43A
:10116000B2FA82F5C4F120046419B4F12006D6D392
:10117000B2405FF00044F440002502E052085FEA0C
:101180003303C61A71EB020E24BF30467146644128
:101190006D41F3D302000B002000290070BD0C4606
:1011A000B1FBF2F102FB11452D0445EA1045B5FBF8
:1011B000F2F402FB145580B240EA0545B5FBF2F0AB
:1011C00002FB105240EA044070BD000062B38B077E
:1011D00008D0521E11F8013B00F8013B00F02480BA
:1011E0008B07F6D1830740F0208000BF103A07D369
:1011F00030B4B1E83810103AA0E83810F9D230BC59
:10120000530724BFB1E80810A0E8081044BF51F804
:10121000043B40F8043BD20724BF31F8022B20F8EE
:10122000022B44BF0B7803707047083A07D3B1E82C
:101230000810083A40F8043B40F804CBF7D25307B3
:10124000E4E730B4436803F000420121C3F3130321
:101250004360002B04BF0368002B08D10DE0036836
:10126000DD0F45EA440444605B000360491E4468A6
:10127000E302F4D5C4F31303436043681A434260A6
:10128000084630BC704700004FF4001C1CEB410FB7
:1012900094BF1CEB430F09E041EA030C50EA4C0CED
:1012A00052EA0C0C03D2994208BF9042704714BF17
:1012B0008B42824270470000B0B581EA030C0CF00B
:1012C000004C40F2FF7515EA11541DBF15EA135783
:1012D000AC42AF4239E0E41923EA455343F48013AA
:1012E000C90241F0004141EA505EC7021100A7FB6C
:1012F000020200284FF00000EEFB01204FF0000139
:10130000E3FB072118BF42F00102401800214941C8
:10131000E3FB0E01A4F580640F0302D252004041AA
:10132000494154F101046CDD470872F1004250F16B
:10133000000051EB0451A1F580115CBF41EA0C01A2
:10134000B0BD4CEA05510020B0BD05EA1357AC42D0
:1013500014BFAF4241E050EA410E1CBF52EA430EB7
:1013600002E061460020B0BD24423C441BD15FEA4C
:10137000070EF6D0090302BF01460020AEF1140E9D
:10138000B1FA81F7AEEB070401FA07FE0C37C7F19B
:10139000200100FA07F7C8404EEA000E23EA455341
:1013A00043F48013A2E733F00043B3FA83F704BF9A
:1013B000B2FA82FE77440B3FE41BB7F1200E2FBF39
:1013C00002FA0EF3BB40C7F1200E22FA0EFE38BF20
:1013D00043EA0E03BA40641C82E750EA410E14BF90
:1013E00052EA430E6FF000014FF4001717EB430F62
:1013F0008ABF194617EB410FB5E74CEA05510020AB
:10140000B0BDD4F10104B4F120070FDAC4F1200714
:10141000520828BF42F0010210FA07F501FA07F757
:10142000E1BF2A43E0403843E1400FE0352C98DC2F
:10143000C7F1200452EA400220FA07F218BF42F036
:10144000010231FA07F0A1400A43002172F1004283
:1014500050F1000051EB0C01B0BD00002DE9F0414E
:1014600040F2FF7581EA030C0CF0004C15EA1154B0
:101470001DBF15EA1357AC42AF42E9E0BC41C1F3CE
:101480001301C3F31303801A994143F4801304D268
:10149000641E4000494180185941C90241EA505137
:1014A000B1FBF3F603FB1611A2FB0675D7EBC020C8
:1014B000A94102D2761E80185941C90241EA505111
:1014C000B1FBF3FE03FB1E11A2FB0E75D7EBC02090
:1014D000A94103D2AEF1010E80185941890241EAB7
:1014E0009051760546EA8E2EB1FBF3F603FB1611FA
:1014F000A2FB0675D7EB8020A94102D2761E801888
:101500005941C90241EA50514EEA060EB1FBF3F6C9
:1015100003FB1611A2FB0675D7EBC020A94102D22E
:10152000761E80185941C90241EA5051B1FBF3F7C8
:1015300003FB1711A2FB0735D3EBC020A94167F1CC
:1015400000070CBF004247F0010766F3D5274FEABA
:101550001E31B80814F5806414DDBD0775F1004232
:1015600050EB0E5051EB045111F5801F5CBF41EA66
:101570000C01BDE8F0814CF07F6141F0E0410020BA
:10158000BDE8F081BD076D0840EA0E5041F48011BE
:10159000D4F10104B4F120060ADAC4F120060200F5
:1015A000E04001FA06F3E1401843B24015430EE073
:1015B000342C14DCC6F1200445EA40056D0820FAFD
:1015C00006F2154321FA06F0A1400D43002175F102
:1015D000004250F1000051EB0C01BDE8F081002009
:1015E0005FEA0C01BDE8F081CFB992185B41B3FA14
:1015F00083F704BFB2FA82F6BF190B3FB7F120069A
:101600002FBF02FA06F3BB40C7F1200622FA06F606
:1016100038BF3343BA401CB1E419641E2FE77F4240
:1016200031F00041B1FA81F404BFB0FA80F6A41998
:101630000B3CB4F120062FBF00FA06F1A140C4F123
:10164000200620FA06F638BF3143A0403C1B16E7BF
:10165000AC421ABF05EA1357AF4214E050EA410604
:101660001CBF52EA4306BFE750EA410730466146D5
:101670001CBF41EA0551BDE8F08152EA430C08BFA6
:10168000C143BDE8F08100204FF4001616EB410F76
:1016900098BF16EB430F08BF16EB410F24BFC143A1
:1016A00005E016EB430F0CBF61464CEA0551BDE85F
:1016B000F0810000F446400D40EAC120490006D206
:1016C00000F014F8004248BF6FF00040604700F09F
:1016D0000DF84FF0004188428CBF084640426047F9
:1016E000400D40EAC120490080F00D8040F00040EC
:1016F000490DA1F58061491C05D4D1F11F0154BFEA
:10170000C840C01770474FF000007047010040F11B
:101710000980F446404200F005F851F0004160476E
:10172000010000BF09D0B0FA80F18840C91CC1F5A2
:101730008461090501EBD02140057047F0B44FF0FA
:10174000004591EA030F44BF6B4000F001B900BFB0
:10175000841A71EB030604D26E40001BB1411219CA
:1017600073414FF4001C1CEB410F34BF7CEB43066C
:1017700084E00C0DA4EB1356362E7DDC012E43DCE9
:1017800045EAC32343EA525312BFD20292025B08D6
:10179000240545EAC12141EA5051D2EBC0209941CC
:1017A00025D407D1B0FA80F610FA06F164D00020F3
:1017B000203608E0B1FA81F6B140C6F1200220FAE5
:1017C00002F21143B0404FEAF474B4EB465434F0E3
:1017D00001064FEA74040AD8D6F50016760D04F017
:1017E0000044F04061FA06F25040F1404840C00A1F
:1017F00040EA415021F0004128BF5FEA500550F116
:10180000000044EBD12137E045EAC323DB0A45EA77
:10181000C121C90AB6F120050EDD42EA0242120CCE
:10182000C5F1200603FA06F6EB4042EA06056D42D2
:10183000984161F100010DE062FA06F5F240554071
:1018400063FA06FC82EA0C02F3405A406D42904172
:1018500061EB030111F4801F05D1641E620502D003
:101860006D004041494121F48011430875F1004366
:1018700050F1000041EB0451F0BC70471CEB410FEC
:1018800015D223F0004352EA43060BD04FEA4C0C2A
:10189000BCEB410F04D80C0D661E342EB7DDEBE710
:1018A000801A994150EA410608BF0021E4E708BFC9
:1018B0001CEB430F28BF6FF00001DDE780B5134834
:1018C00000F0B0F80FF24C020FF2440101604262E6
:1018D00041600FF24402826381600FF24402C160F2
:1018E0000161416181618162C16201634163C263DF
:1018F0000164416401BD10B5044800F093F804464A
:10190000206808B9FFF7DAFF204610BD600DFF1F01
:10191000000000002E00000066616C73650000008E
:10192000747275650000000091FBF2F303FB121165
:10193000C0E900317047000070470000F0B44FF07C
:10194000004591EA030C44BF6B40FFF701BF00BFA5
:10195000841A71EB030603D2001BB14112197341C3
:101960004FF4001C1CEB410F34BF7CEB430443E0FD
:101970000C0DA4EB1356352E50DC45EAC323DB0ACD
:1019800045EAC121C912B6F120050DDD63FA05F65D
:10199000EB4086EA0305124218BF45F00105C01866
:1019A00051F100010CD213E062FA06F5F240554005
:1019B000F3415A40B340F3405A408018594107D38D
:1019C00049085FEA30005FEA350528BF45F00105A8
:1019D00001F58011420875F1004250F1000041EB21
:1019E0000451F0BC4FF4001C1CEB410F38BF704792
:1019F0000020090D090570471CEB410F10D252EA77
:101A000043060BD0BCEB410F05D80C0DAB43661E53
:101A1000342EB5DD02E0AB4380185941F0BC70476D
:101A2000F0BC7047704700002DE9F8439BA20021ED
:101A3000002000F0A2FF0123DFF8880A90F90200DD
:101A4000020092B20021032000F0CDFFE7A20021A6
:101A5000282000F092FF0123DFF8680A027892B292
:101A60000021072000F0BFFFE1A200214B2000F081
:101A700084FF0123DFF84C0A427892B200210C2047
:101A800000F0B1FF412001F079F90400402001F09D
:101A900075F9400050FA84F4E4B2002C05D0022C11
:101AA0000DD007D3032C0FD013E00020DFF8141A59
:101AB00048700EE00120DFF80C1A487009E002209F
:101AC000DFF8001A487004E00320DFF8F8194870C6
:101AD000FFE7DFF8F00990F90200002851D1032355
:101AE000DFF8E409027892B20221002000F07BFFC7
:101AF0000323DFF8D409C27892B20221052000F056
:101B000072FF0323DFF8C009827992B202210A2012
:101B100000F069FF0323DFF8B009427892B2042194
:101B2000002000F060FF0123DFF8A00990F9000019
:101B3000020092B20421052000F055FF0323DFF8D4
:101B40008809427992B204210A2000F04CFF032355
:101B5000DFF87409827892B20621002000F043FF7A
:101B60000423DFF86C0902880621052000F03BFF02
:101B70000323DFF85409027992B206210A2000F00B
:101B800032FFDFF8400990F9020001283CD199A208
:101B900002210A2000F0F1FE01200090DFF8340954
:101BA000006801F00DF902000B000221062000F090
:101BB0007BFF91A204210A2000F0DFFE01200090AB
:101BC000DFF81409006801F0FBF802000B000421A3
:101BD000062000F069FFDFF8042906210A2000F042
:101BE000CCFE0323DFF8F80842880621082000F025
:101BF000FAFE82A2DFF8CC080078C0B24100C9B278
:101C0000002000F0BAFEEEE0DFF8B80890F902001C
:101C1000022845D1DFF8CC2802210A2000F0ADFED1
:101C200001200090DFF8C008006901F0C9F8020047
:101C30000B000221062000F037FFDFF8B028042156
:101C40000A2000F09AFE01200090DFF8A408006846
:101C500001F0B6F802000B000421062000F024FF7A
:101C6000DFF8902806210A2000F087FE012000906E
:101C7000DFF88408006801F0A3F802000B000621D9
:101C8000062000F011FF5DA2DFF838080078C0B22E
:101C90004100C9B2002000F070FEA4E05000000036
:101CA000DFF8200890F90200032840F09C8002230E
:101CB000DFF84808027892B20221002000F093FE7B
:101CC0000223DFF83808427892B20221032000F0A4
:101CD0008AFE0223DFF82408827892B202210620CD
:101CE00000F081FE0223DFF81408C27892B20221CC
:101CF000092000F078FE0223DFF80008027992B292
:101D000002210C2000F06FFE0223DFF8F4070278B6
:101D100092B20421002000F066FE0223DFF8E00703
:101D2000427892B20421032000F05DFE0223DFF826
:101D3000D007827892B20421062000F054FE0223DC
:101D4000DFF8BC07827992B20421092000F04BFE33
:101D5000412001F013F88046402001F00FF8814641
:101D6000372001F00BF80500362001F007F80600D7
:101D7000352001F003F80700342000F0FFFF0223B4
:101D80005FFA89F95FEA490151FA88F1EDB203225D
:101D900002FB0511F6B211EB8601FFB2052202FB30
:101DA0000711C0B2062202FB0010020092B2062107
:101DB000002000F018FE0323DFF848070288062100
:101DC000032000F010FE0323DFF83C070288062101
:101DD000072000F008FE0323DFF830070288062101
:101DE0000B2000F000FEBDE8F18300004C00000075
:101DF000550000006B5F70006B5F64002A000000FC
:101E000010B50024102000F0B9FF002807D10120F0
:101E10000400102000F0B2FF002833D1F9E70C20B5
:101E200000F0ACFF002807D1022004000C2000F0D5
:101E3000A5FF002826D1F9E70F2000F09FFF00281A
:101E400007D1032004000F2000F098FF002819D1CB
:101E5000F9E70E2000F092FF002807D104200400CB
:101E60000E2000F08BFF00280CD1F9E70D2000F0C8
:101E700085FF002806D1052004000D2000F07EFF1C
:101E80000028FAD02000C0B210BD10B5FFF7B8FF8F
:101E90000400E4B2012C0BD0C0F01383032C00F03B
:101EA0008C811AD3052C00F0FB82C0F0D38108E3AB
:101EB000002000F0B5FBDFF80C068078401CDFF84E
:101EC00004168870DFF8FC0590F90200042803DB93
:101ED0000020DFF8F0158870F3E2DFF8E80590F9EC
:101EE0000200012847D1DFF8DC050078012842D143
:101EF000DFF8D0054078002805D0022824D013D37D
:101F000003282CD036E0DFF8CC05006800F058FF3D
:101F1000DFF8FC25DFF8FC35FFF710FD00F078FF57
:101F2000DFF8B015086047E1DFF8A805006800F0A9
:101F300047FF0022DFF8E035FFF700FD00F068FF03
:101F4000DFF89015086037E1DFF888050168DFF8F1
:101F5000CC0500F0A5FFDFF87C1508602CE1DFF868
:101F600074050168DFF8B80500F09AFFDFF8641522
:101F7000086021E120E1DFF84C0590F9020001281A
:101F80003CD1DFF840050078022837D1DFF834056E
:101F90004078002805D0022819D00DD3032821D07D
:101FA0002BE0DFF834050168DFF8700500F078FFFA
:101FB000DFF824150860FFE0DFF81C050168DFF892
:101FC000600500F06DFFDFF810150860F4E0DFF841
:101FD00008050168DFF84C0500F062FFDFF8F8142F
:101FE0000860E9E0DFF8F0040168DFF83C0500F084
:101FF00057FFDFF8E4140860DEE0DDE0DFF8C4043A
:1020000090F9020002283CD1DFF8B80400780128DA
:1020100037D1DFF8B0044078002805D0022819D065
:102020000DD3032821D02BE0DFF8BC040169DFF8D1
:10203000F40400F035FFDFF8B0140861BCE0DFF80D
:10204000A8040169DFF8E00400F02AFFDFF8981423
:102050000861B1E0DFF890040169DFF8D00400F016
:102060001FFFDFF884140861A6E0DFF87C04016933
:10207000DFF8BC0400F014FFDFF86C1408619BE08B
:102080009AE0DFF8400490F90200022847D1DFF817
:1020900034040078022842D1DFF828044078002870
:1020A00005D0022824D013D303282CD036E0DFF843
:1020B0004004006800F084FEDFF85424DFF8543454
:1020C000FFF73CFC00F0A4FEDFF82414086073E086
:1020D000DFF81C04006800F073FE0022DFF83834DB
:1020E000FFF72CFC00F094FEDFF80414086063E0B6
:1020F000DFF8FC030168DFF8240400F0D1FEDFF80C
:10210000F013086058E0DFF8E8030168DFF8100416
:1021100000F0C6FEDFF8D81308604DE04CE0DFF8B1
:10212000A40390F90200022846D1DFF89803007852
:10213000032841D1DFF88C034078002805D002281D
:1021400024D013D303282CD036E0DFF8AC0300688A
:1021500000F036FEDFF8B823DFF8B833FFF7EEFB08
:1021600000F056FEDFF89013086025E0DFF88803E2
:10217000006800F025FE0022DFF89C33FFF7DEFB4D
:1021800000F046FEDFF87013086015E0DFF8680322
:102190000168DFF8880300F083FEDFF85C13086055
:1021A0000AE0DFF854030168DFF8740300F078FEFA
:1021B000DFF844130860FFE783E1DFF8080390F9D4
:1021C0000200002819D10020DFF868130870DFF83A
:1021D000FC0290F90000012804D10020DFF8EC1285
:1021E00008706EE1DFF8E40290F90000002804D1E5
:1021F0000120DFF8D812087063E1DFF8C80290F917
:102200000200012810D1DFF8BC020078401CAD4963
:102210000870002000F004FAAA480078032802DBC6
:102220000120A84908704CE1A64890F90200022854
:102230000FD1A4480078401CA2490870002000F08B
:10224000EFF9A0480078042802DB01209D490870BE
:1022500037E136E19B4890F90200012839D19948CD
:102260000078012835D197484078002805D0022809
:102270001DD00FD3032823D02AE09648006800F031
:102280009FFDA34AAC4BFFF759FB00F0C1FD9149FC
:10229000086004E18F48006800F092FD0022A74B1F
:1022A000FFF74CFB00F0B4FD8A490860F7E089486D
:1022B00001685FF07E5000F0F3FD86490860EEE0B3
:1022C000844801689E4800F0EBFD82490860E6E022
:1022D000E5E07C4890F9020001282FD17948007888
:1022E00002282BD177484078002805D0022814D046
:1022F0000BD3032819D020E0774801685FF07E50A7
:1023000000F0CEFD74490860C9E0734801688C484C
:1023100000F0C6FD70490860C1E06F480168894857
:1023200000F0BEFD6C490860B9E06B480168864862
:1023300000F0B6FD68490860B1E0B0E0614890F98E
:10234000020002282ED15F48007801282AD15D487A
:102350004078002805D0022813D00AD3032818D0CB
:102360001FE061480169774800F09AFD5E49086105
:1023700095E05D480169744800F092FD5A49086192
:102380008DE059480169714800F08AFD564908619D
:1023900085E0554801696E4800F082FD52490861A8
:1023A0007DE07CE0474890F90200022839D1454899
:1023B0000078022835D143484078002805D002280B
:1023C0001DD00FD3032823D02AE04948006800F02D
:1023D000F7FC4F4A584BFFF7B1FA00F019FD44499A
:1023E00008605CE04248006800F0EAFC0022534BC1
:1023F000FFF7A4FA00F00CFD3D4908604FE03C48AF
:1024000001685FF07E5000F04BFD3949086046E0FE
:10241000374801684A4800F043FD354908603EE00E
:102420003DE0284890F90200022838D1254800787C
:10243000032834D123484078002805D002281DD035
:102440000FD3032823D02AE02B48006800F0B8FC03
:102450002F4A394BFFF772FA00F0DAFC2649086080
:102460001DE02548006800F0ABFC0022334BFFF76D
:1024700065FA00F0CDFC2049086010E01E480168B4
:102480005FF07E5000F00CFD1B49086007E01A4821
:1024900001682B4800F004FD17490860FFE710E0D1
:1024A000002000F0BDF807488078401E054988707C
:1024B000044890F90200002802D5032001498870E1
:1024C000FFE710BDD80CFF1F980CFF1F0C0CFF1F5F
:1024D000540DFF1FC80BFF1FC40BFF1F0C7800001B
:1024E000600CFF1F14780000C00CFF1F1C78000058
:1024F000BC0BFF1F24780000C00BFF1FE40CFF1F64
:10250000DC0CFF1F4E0DFF1F500DFF1F520DFF1F54
:102510009A9999999999B9BF0000E0BF000080BFCE
:102520000000A0C0000020C1000048C20000C8C2D6
:10253000000048C3580DFF1F9999B93F0000E03FC4
:102540000000A04000002041000048420000C842B6
:102550000000484338B5040008250121522000F04E
:10256000D4FB00BF0021612000F0CFFB00BF28009A
:10257000451EC0B2002815D0200604D501216020D8
:1025800000F0C3FB03E00021602000F0BEFB01214E
:10259000612000F0BAFB00BF0021612000F0B5FB14
:1025A0006400E4E731BD000038B5040008250021CF
:1025B000522000F0AAFB0021612000F0A6FB2800B9
:1025C000451EC0B2002815D0200604D50121602088
:1025D00000F09BFB03E00021602000F096FB01214E
:1025E000612000F092FB00BF0021612000F08DFB14
:1025F0006400E4E731BD38B504000D00B5F15000CA
:10260000C0B2FFF7D1FF2000C0B2000950F01000A7
:10261000C0B2FFF7C9FF14F00F00FFF7C5FF31BDCF
:1026200070B5040000200500EDB2082D17DAB5F1F1
:102630005000C0B2FFF7B8FF0120FFF7B5FF102030
:10264000FFF7B2FF00200600F6B2802E05DA200068
:10265000C0B2FFF77FFF761CF6E76D1CE4E770BDA4
:1026600080B2002809D043F2264211000A00511E10
:1026700092B2002AFAD1401EF2E7704780B50022DC
:102680000121632000F0EAFA00220121602000F01D
:10269000E5FA002201214C2000F0E0FA002201219D
:1026A000522000F0DBFA00220121532000F0D6FA7C
:1026B00000220121612000F0D1FA0121612000F007
:1026C00024FB0021532000F020FB3220FFF7C8FF3D
:1026D0000121532000F019FBAE20FFF765FF002019
:1026E000FFF762FF1020FFF75FFF4020FFF75CFF5E
:1026F0008120FFF759FFCF20FFF756FFA120FFF7FA
:1027000053FFC820FFF750FFA620FFF74DFFA8207A
:10271000FFF74AFF3F20FFF747FFD320FFF744FFB3
:102720000020FFF741FFD520FFF73EFF8020FFF795
:102730003BFFD920FFF738FFF120FFF735FFDA2004
:10274000FFF732FF1220FFF72FFFDB20FFF72CFFF0
:102750004020FFF729FF2020FFF726FF0220FFF788
:1027600023FF8D20FFF720FF1420FFF71DFFA4207B
:10277000FFF71AFFA720FFF717FFAF20FFF714FF9F
:102780000020FFF74DFF00210020FFF734FF01BDBF
:102790002DE9F84304000D00160000275FF0000843
:1027A0005FF000095FFA89F916F80900002842D0A5
:1027B0005FFA89F916F8090020380700E4B2792C8D
:1027C00002DB002004006D1C2900C9B22000C0B249
:1027D000FFF711FF002080465FFA88F8B8F1080F74
:1027E0000BDADFF86804FFB2390151FA88F1405C76
:1027F000FFF7B0FE18F10108EEE7691CC9B220002E
:10280000C0B2FFF7F8FE002080465FFA88F8B8F102
:10281000080F0CDADFF83404FFB2390151FA88F1FD
:102820000844007AFFF796FE18F10108EDE7083436
:1028300019F10109B6E7BDE8F1832DE9F843040079
:102840000D00160000275FF000085FF001095FFA35
:1028500088F816F80800002800F08D800020070096
:1028600001208146DFF8E803FFB2C05D80281DDB50
:10287000DFF8DC03FFB2C05D5FFA88F816F80810D5
:10288000884211D1DFF8C803FFB2384440785FFABC
:1028900088F806EB08014978884205D1FFB20E207E
:1028A00017FB00F0814601E0BF1CDBE7E4B2772CA8
:1028B00002DB002004006D1C2900C9B22000C0B258
:1028C000FFF799FE1FFA89F9B9F1010F2DD0290000
:1028D000C9B22000C0B2FFF78EFE00200700FFB291
:1028E0000E2F0BDADFF86C031FFA89F910F80900D4
:1028F000FFF730FE19F101097F1CF0E7691CC9B22E
:102900002000C0B2FFF777FE00200700FFB20E2FB5
:102910002DDADFF840031FFA89F910F80900FFF7F4
:1029200019FE19F101097F1CF0E718F101082900CF
:10293000C9B22000C0B2FFF75EFE00200700FFB260
:10294000102F04DA0020FFF705FE7F1CF7E7691C53
:10295000C9B22000C0B2FFF74EFE00200700FFB250
:10296000102F04DA0020FFF7F5FD7F1CF7E70E3487
:1029700018F102086BE7BDE8F183F8B504000D001B
:1029800016000027FFB2F05D00282BD0FFB2F05DEB
:10299000802816DBFFB2F05D8DF80000FFB206EB79
:1029A000070040788DF8010000208DF802006A468B
:1029B0002900C9B22000C0B2FFF73FFF0E34BF1C90
:1029C000E0E7FFB2F05D8DF8000000208DF8010017
:1029D0006A462900C9B22000C0B2FFF7D9FE083408
:1029E0007F1CCFE7F1BD2DE9FC4180460C001500AE
:1029F0001E000027684600210022C0E900125FFA8D
:102A000088F85FEAC808ADB242F2107095FBF0F0AA
:102A10000A2190FBF1F201FB12008DF80000ADB22B
:102A20004FF47A7095FBF0F00A2190FBF1F201FB74
:102A300012008DF80100ADB2642095FBF0F00A2180
:102A400090FBF1F201FB12008DF80200ADB20A20FA
:102A500095FBF0F00A2190FBF1F201FB12008DF8DA
:102A60000300ADB20A2095FBF0F100FB11508DF888
:102A7000040000200700FFB2052F08DA6846FFB205
:102A8000C05D30306946FFB2C8557F1CF3E7684629
:102A9000F6B271420844421D2100C9B24046C0B29C
:102AA000FFF776FEBDE8F3812DE9F24F86B007000F
:102AB00092469B46DDF840900124684600210022A2
:102AC00000230EC00C380125002600200021CDE98E
:102AD00004015FF00008FFB2FF0050465946FEF7C0
:102AE000E9FD0600B6B23000FEF71AFE02000B0048
:102AF00050465946FEF722FECDE90401DDE90423E4
:102B00000020DFF85411FEF7D7FBFEF7D3FD804617
:102B1000B6B20A2096FBF0F090FBF5F0002803D047
:102B20000A204543641CF3E7B6B242F2107096FBEC
:102B3000F0F00A2190FBF1F201FB12008DF8000089
:102B4000B6B24FF47A7096FBF0F00A2190FBF1F2E6
:102B500001FB12008DF80100B6B2642096FBF0F084
:102B60000A2190FBF1F201FB12008DF80200B6B2CF
:102B70000A2096FBF0F00A2190FBF1F201FB120013
:102B80008DF80300B6B2012096FBF0F00A2190FB0D
:102B9000F1F201FB12008DF804002E208DF80500E3
:102BA0001FFA88F84FF47A7098FBF0F00A2190FB36
:102BB000F1F201FB12008DF806001FFA88F864207C
:102BC00098FBF0F00A2190FBF1F201FB12008DF866
:102BD00007001FFA88F80A2098FBF0F00A2190FB02
:102BE000F1F201FB12008DF808001FFA88F80A20A4
:102BF00098FBF0F100FB11808DF809000020694678
:102C00005FFA89F949448871002005000A2D06DA27
:102C10006846405D3030694648556D1CF6E72E2009
:102C20008DF80500002069465FFA89F949448871EA
:102C30006846E4B261420844421D9DF8181038000D
:102C4000C0B2FFF7A5FD07B0BDE8F08F003D000062
:102C5000E8740000206400000088C34070B50400E0
:102C60000D0016004FF480712000C0B200F05AF938
:102C70006DB2002D11D15048E4B2611150F821001D
:102C80004D49E4B2621151F822104969012214F051
:102C90001F039A409143416136E04748E4B2611115
:102CA00050F821004449E4B2621151F822104969F8
:102CB000012214F01F039A4011434161F6B2002E25
:102CC00011D13D48E4B2611150F8210000680121A2
:102CD00014F01F02914088433749E4B2621151F861
:102CE0002210086010E03448E4B2611150F821006D
:102CF0000068012114F01F02914008432E49E4B2FC
:102D0000621151F82210086070BD38B504000D0042
:102D10002948E4B2611150F82100406914F01F0104
:102D2000C840C00703D46321244800F057F9EDB22E
:102D3000002D11D12048E4B2611150F82100006843
:102D4000012114F01F02914088431B49E4B2621133
:102D500051F82210086010E01748E4B2611150F8F1
:102D600021000068012114F01F029140084312491C
:102D7000E4B2621151F82210086031BD10B50400B0
:102D80000D48E4B2611150F82100406914F01F01B0
:102D9000C840C00703D58C21084800F01FF9064839
:102DA000E4B2611150F82100006914F01F01C8401D
:102DB00010F0010010BD00002C0BFF1F5876000022
:102DC0005FF0FF0C1CEAD05114BF614506E0C11052
:102DD000400721F0E04101F16051704779B900F0FE
:102DE000004100020AD0B0FA80FC00FA0CF001F1B8
:102DF0006051A1EB0C5101EBD0214005704741021D
:102E00000CBF40F4E0016FF00001002070470000AB
:102E10004FEAF17CBCF1E04C2CBFBCF5001F11E087
:102E20005FEA4C0C34BFBCF17F5F2EE05FEA9C0C84
:102E30004FEA0C1C4FEA3C0CC10071F100414CEB15
:102E400050707047C90241EA5051C00218BF41F0AA
:102E5000010141F000414FEA6C50C0F10900212806
:102E600010D240EACC7CCCF1200C11FA0CF070F1BD
:102E70000040CCF1200C21FA0CF00CF0004C40EB9F
:102E80000C0070474FEACC707047490011F5001FE5
:102E900004D84FEACC10FF30C0057047C817704700
:102EA00090EA010F44BF81F0004100F0DFB800BF9D
:102EB000421A3CBF801A89184FF0004CC0F3C75229
:102EC000FF2A24D0C1F3C75313B3D21AD2F1190386
:102ED00027DD4CEA01214CFA03F321EA0303D14038
:102EE000C20D4CEA0020401834BF20EA0C004CEA26
:102EF0005000D20553EA006373EB0C0C52EB102028
:102F0000420012F1807F38BF7047C00DC005704786
:102F1000490212BF9A4200EB5120F8E7D2F11703A1
:102F2000D9D5704710B42B4A13684FF400740200CF
:102F3000D2B2520914FA02F21A43264B1A60264AF8
:102F4000C0B2431152F82320012310F01F04A34004
:102F5000C2F8A030204AC0B2431152F82320C0B2B8
:102F600010F01F0342F8231010BC704710B4194A28
:102F700013684FF400740200D2B2520914FA02F23C
:102F80001A43144B1A60144AC0B2431152F823205A
:102F9000012310F01F04A340C2F8A03031F4E06117
:102FA0000D4AC0B2431152F82320C0B210F01F03E3
:102FB00052F8232012F4E0621143074AC0B24311D1
:102FC00052F82320C0B210F01F0342F8231010BCA7
:102FD0007047000038800440900BFF1F38B5040094
:102FE0000D002A002100184800F0ACF817480068CE
:102FF0004FF47A7101FB00F1032000F0EBF8F0E7E9
:1030000038B504000D00210049B2032000F04BFA4E
:10301000200032BD10B50E4804680E48E4B20F21FE
:1030200001FB04F100EB0102E4B221000A4800F0C8
:1030300089F8064800684FF47A7101FB00F103201B
:1030400000F0C8F8E9E700006C770000F80CFF1FFB
:1030500004ED00E01804FF1FCC75000090EA010F9A
:1030600044BF81F00041FFF723BF00BF431A4FF078
:1030700000423EBF5340C01AC91800BFD3095FEADF
:10308000D05C13EB400F34BFB3EB410F40E07CEB5F
:10309000D1530CD342EA012122D8D1EB402009D3ED
:1030A000400A28BF5FEA500140EBCC507047401AFD
:1030B00015D04002B0FA80F2521C9040400A4FEA0C
:1030C0003C23B3EB026384BF00EB730007E040F4E2
:1030D00000001A16DB07C2F10102D0401843704706
:1030E000182BFCDC31FA03F202FA03F3591A38BF49
:1030F00042F00102D2EB40203CBF4000ACF1010C99
:103100005FEACC5CC20572F100414CEB5020704785
:1031100013EB400F0FD24B0009D0ACEBD153022B75
:1031200003DB4902172BDDDD70479143401A430052
:10313000D5D10020704713EB410FD0D36FF00000C2
:10314000704700000EB400B582B003A9009102469A
:103150006B460121034878440A30FDF75DF906BC4F
:103160005DF810FB7946000038B504000D00002D15
:1031700003D124214348FFF731FF4348006850F44E
:10318000000041490860002040490860681E40492D
:1031900064B2220188503E4864B221010844C068EC
:1031A00050F001003A4964B222011144C860384825
:1031B00064B221010844806840084000344964B288
:1031C0002201114488600320314964B22201114474
:1031D000886031BD38B504000D00002D03D14721B2
:1031E0002848FFF7FBFE2848006850F400002649F5
:1031F0000860264800688008800024490860244848
:1032000064B221010844806840084000204964B24B
:10321000220111448860681E1D4964B22201885051
:103220001B4864B221010844C06850F001001849ED
:1032300064B222011144C860154864B221010844F7
:10324000806840084000124964B22201114488603D
:1032500001200F4964B22201114488600C4864B215
:1032600021010844C068C007F8D5094864B22101AB
:103270000844C06850F00100054964B222011144BD
:10328000C86031BDD07600003C800440007003402F
:10329000007103402DE9F84304000D0064B2002CD6
:1032A00008D0022C2CD018D3042C4FD03BD3052CA3
:1032B0005FD071E0DFF83002006850F48060DFF822
:1032C000281208604FF440713020FFF72BFE4FF4B6
:1032D00040713120FFF726FE5EE0DFF80C02006847
:1032E00050F40060DFF8001208604FF44071432092
:1032F000FFF718FE4FF440714420FFF713FE4BE038
:10330000DFF8E401006850F48050DFF8DC11086059
:103310004FF440716320FFF705FE4FF440716220C7
:10332000FFF700FE38E0DFF8C001006850F40050FD
:10333000DFF8B41108604FF440715020FFF7F2FD40
:103340004FF440715120FFF7EDFD25E0DFF89C01BF
:10335000006850F48060DFF8941108604FF4407109
:103360009920FFF7DFFD4FF440719820FFF7DAFD59
:1033700012E0DFF87801006850F40060DFF86C11AB
:1033800008604FF440718920FFF7CCFD4FF4407185
:103390008820FFF7C7FDFFE7DFF8540164B250F85B
:1033A0002400C07810F0F300DFF8441164B251F843
:1033B0002410C870DFF8380164B250F82400807817
:1033C000DFF82C1164B251F82410887064B2002C1C
:1033D00002D064B2012C06D1464800684FF47A71DD
:1033E0004843814605E0444800684FF47A714843F9
:1033F00081462801B9FBF0F00600B6B2B6F5005FD1
:1034000002DB41F6FF700600B9FBF5F0B6B2B0EB97
:1034100006100700BFB2202F04DB40F2031137482B
:10342000FFF7DCFD324864B250F82400007810F059
:10343000E0008046C6F3042050EA08002C4964B23C
:1034400051F8241008702A4864B250F824004670DD
:10345000274864B250F82400807A10F0E0008046DB
:1034600017F01F0050EA0800214964B251F82410F7
:1034700088721F4864B250F82400007C50F0880025
:103480001B4964B251F824100874194864B250F80A
:103490002400C07850F00C00154964B251F8241093
:1034A000C870BDE8F183124A40B252F82020127968
:1034B0001206F8D50E4A40B252F82020D17170475A
:1034C00070B504000D0016003000461E002809D01B
:1034D00095F90000010049B2200040B2FFF7E3FF78
:1034E0006D1CF1E770BD000034800440288004406A
:1034F000A40BFF1FF00CFF1FF80CFF1FF876000055
:1035000000B0034000B00B400000000000000000CD
:1035100000000000000000000000000000000000AB
:103520000000000000004E6F6E4D61736B61626CB5
:103530006500000000486172644661756C740000AB
:10354000000000004D656D4D616E6167656D656ED3
:103550007400004275734661756C740000000000D1
:10356000000055736167654661756C74000000006A
:10357000000000000000000000000000000000004B
:10358000000000000000000000000000000000003B
:10359000000000000000000000000000000000002B
:1035A000000000000000000000000000005356432F
:1035B000616C6C0000000000000000004465627552
:1035C000674D6F6E69746F720000000000000000AC
:1035D0000000000000000000000050656E645356BB
:1035E0000000000000000000005379735469636B11
:1035F0000000000000000000444D413000000000C9
:1036000000000000000000444D41310000000000B7
:10361000000000000000444D4132000000000000A6
:103620000000000000444D41330000000000000095
:1036300000000000444D4134000000000000000084
:10364000000000444D413500000000000000000073
:103650000000444D41360000000000000000000062
:1036600000444D4137000000000000000000000051
:10367000444D4138000000000000000000000044FC
:103680004D41390000000000000000000000444DE2
:1036900041313000000000000000000000444D41B6
:1036A000313100000000000000000000444D4131B5
:1036B0003200000000000000000000444D413133A2
:1036C00000000000000000000000444D41313400C3
:1036D000000000000000000000444D4131350000B2
:1036E0000000000000000000444D415F4572726F11
:1036F000720000000000004D434D0000000000007B
:103700000000000000004654464C0000000000008D
:103710000000000000526561645F436F6C6C697368
:10372000696F6E004C56445F4C5657000000000015
:103730000000004C4C57000000000000000000009A
:1037400000005761746368646F6700000000000048
:1037500000524E4700000000000000000000000082
:103760004932433000000000000000000000004922
:103770003243310000000000000000000000535000
:1037800049300000000000000000000000535049D4
:1037900031000000000000000000000053504932DA
:1037A000000000000000000000000043414E305FB8
:1037B0004F525F4D425F6275660043414E305F423B
:1037C00075735F4F666600000043414E305F45727F
:1037D000726F72000000000043414E305F54785F0A
:1037E0005761726E696E6743414E305F52785F5722
:1037F00061726E696E6743414E305F57616B655F02
:10380000557000000052657365727665643531004D
:103810000000000052657365727665643532000001
:1038200000000043414E315F4F525F4D425F627571
:10383000660043414E315F4275735F4F666600001C
:103840000043414E315F4572726F7200000000000C
:1038500043414E315F54785F5761726E696E6743C2
:10386000414E315F52785F5761726E696E674341B6
:103870004E315F57616B655F557000000052657394
:103880006572766564353900000000005265736525
:1038900072766564363000000000005541525430A5
:1038A0005F52585F54580000000055415254305F39
:1038B00045525200000000000055415254315F5201
:1038C000585F54580000000055415254315F455232
:1038D0005200000000000055415254325F52585FC0
:1038E00054580000000055415254325F4552520076
:1038F000000000000055415254335F52585F545845
:103900000000000055415254335F45525200000000
:1039100000000055415254345F52585F5458000023
:10392000000055415254345F4552520000000000DF
:103930000055415254355F52585F54580000000002
:1039400055415254355F455252000000000000417D
:10395000444330000000000000000000000041442B
:1039600043310000000000000000000000434D5003
:10397000300000000000000000000000434D503106
:103980000000000000000000000000434D50320025
:103990000000000000000000000046544D30000010
:1039A00000000000000000000046544D31000000FF
:1039B000000000000000000046544D3200000000EE
:1039C00000000000000000434D5400000000000013
:1039D00000000000000052544300000000000000FE
:1039E000000000000052657365727665643833002C
:1039F00000000000504954300000000000000000AA
:103A00000000005049543100000000000000000098
:103A10000000504954320000000000000000000087
:103A20000050495433000000000000000000000076
:103A3000504442300000000000000000000000552B
:103A40005342300000000000000000000000555309
:103A500042444344000000000000000000454E4581
:103A6000545F313538385F54696D6572454E455441
:103A70005F5472616E736D69740000454E45545F0A
:103A800052656365697665000000454E45545F45A3
:103A900072726F7200000000004932533000000063
:103AA00000000000000000005344484300000000F4
:103AB000000000000000004441433000000000000E
:103AC00000000000000044414331000000000000FD
:103AD00000000000005453493000000000000000C6
:103AE000000000004D4347000000000000000000FF
:103AF0000000004C5054696D657200000000000029
:103B000000005265736572766564313032000000E2
:103B100000504F525441000000000000000000001F
:103B2000504F5254420000000000000000000050BE
:103B30004F52544300000000000000000000504FAE
:103B400052544400000000000000000000504F529A
:103B5000544500000000000000000000526573653D
:103B6000727665643130380000000052657365720A
:103B700076656431303900000000526573657276F5
:103B800065643131300000000052657365727665FE
:103B900064313131000000005265736572766564EE
:103BA0003131320000000052657365727665643110
:103BB00031330000000052657365727665643131FF
:103BC00034000000005265736572766564313135EA
:103BD000000000005265736572766564313136000D
:103BE00000000052657365727665643131370000FC
:103BF00000005265736572766564313138000000EB
:103C000000526573657276656431313900000000D9
:103C1000008003400090034000800B4000F00F4004
:103C200040F00F4080F00F40C0F00F4000F10F4017
:103C30000060064000700640F0000A1D30001800C9
:103C400032001801600018186400181A6E00181F5E
:103C5000780013187D00131A8200131C8C000E12BA
:103C600096000E15A0000E18AA000E1BB4000E1E22
:103C7000C8000C1CE1000B1EFA000A1F0001090815
:103C80000090044000A0044000B0044000C0044084
:103C900000D0044000A0064000B0064000C006402E
:103CA00000D0064000A00E4000B00E4066662E41D7
:103CB0009A99314100005C429A9941410204010104
:103CC000FC0CFF1F4C0DFF1FFC0CFF1FFC0CFF1F0B
:103CD000FC0CFF1F090CFF1FF00BFF1F0000000072
:103CE00000000000000000000000000000000000D4
:103CF00000000000000000000000000001000000C3
:103D000000000000000000000000000000000000B3
:103D1000000000F800000000000000333000000048
:103D200000100C06100C060000000000000000004F
:103D300040C07840C0784000043F04043F040400C1
:103D4000007088FC08300000001820FF211E0000D1
:103D5000F008F000E018000000211C031E211E00E6
:103D600000F00888700000001E212324192721106C
:103D700010160E000000000000000000000000000F
:103D8000000000E0180402000000000718204000B6
:103D900000020418E00000000040201807000000A6
:103DA000404080F0804040000202010F010202000A
:103DB000000000F0000000000101011F01010100EE
:103DC000000000000000000080B070000000000053
:103DD00000000000000000000001010101010101DC
:103DE0000000000000000000003030000000000073
:103DF0000000000080601804006018060100000048
:103E000000E010080810E000000F102020100F0044
:103E1000001010F8000000000020203F20200000CB
:103E20000070080808887000003028242221300023
:103E300000300888884830000018202020110E002B
:103E40000000C02010F8000000070424243F2400D4
:103E500000F80888880808000019212020110E00A9
:103E600000E0108888180000000F112020110E00BB
:103E700000380808C83808000000003F00000000B3
:103E80000070880808887000001C222121221C0074
:103E900000E010080810E0000000312222110F009D
:103EA000000000C0C0000000000000303000000032
:103EB00000000080000000000000806000000000A2
:103EC00000008040201008000001020408102000BB
:103ED0004040404040404000040404040404040006
:103EE000000810204080000000201008040201009B
:103EF000007048080808F00000000030360100009B
:103F0000C030C828E810E0000718272423140B004D
:103F10000000C038E0000000203C230202273820C7
:103F200008F8888888700000203F202020110E00AB
:103F3000C0300808080838000718202020100800A2
:103F400008F808080810E000203F202020100F008B
:103F500008F88888E8081000203F20202320180057
:103F600008F88888E8081000203F200003000000BF
:103F7000C03008080838000007182020221E020060
:103F800008F808000008F808203F210101213F201F
:103F9000000808F8080800000020203F202000004A
:103FA00000000808F8080800C08080807F0000003A
:103FB00008F888C028180800203F20012638200073
:103FC00008F8080000000000203F202020203000DA
:103FD00008F8F800F8F80800203F003F003F2000F4
:103FE00008F830C00008F808203F200007183F00FC
:103FF000E01008080810E0000F10202020100F002B
:1040000008F808080808F000203F2101010100001D
:10401000E01008080810E0000F18242438504F0062
:1040200008F8888888887000203F2000030C302022
:1040300000708808080838000038202121221C0060
:10404000180808F8080818000000203F20000000A9
:1040500008F808000008F808001F202020201F0092
:104060000878880000C83808000007380E010000F2
:10407000F80800F80008F800033C0700073C0300BC
:10408000081868808068180820302C03032C302022
:104090000838C800C83808000000203F2000000091
:1040A00010080808C83808002038262120201800E9
:1040B000000000FE020202000000007F40404000BD
:1040C000000C30C000000000000000010638C000F5
:1040D00000020202FE000000004040407F0000009D
:1040E00000000402020204000000000000000000C2
:1040F00000000000000000008080808080808080C0
:1041000000020204000000000000000000000000A7
:1041100000008080808000000019242222223F209D
:1041200008F8008080000000003F112020110E00E0
:104130000000008080800000000E1120202011006F
:10414000000000808088F800000E112020103F2021
:104150000000808080800000001F222222221300A5
:10416000008080F0888888180020203F20200000F0
:104170000000808080808000006B949494936000A5
:1041800008F8008080800000203F210000203F20B0
:1041900000809898000000000020203F20200000B0
:1041A000000000809898000000C08080807F0000A0
:1041B00008F8000080808000203F24022D3020007D
:1041C000000808F8000000000020203F2020000028
:1041D0008080808080808000203F20003F20003F42
:1041E0008080008080800000203F210000203F2050
:1041F0000000808080800000001F202020201F0001
:10420000808000808000000080FFA12020110E002F
:104210000000008080808000000E112020A0FF8020
:10422000808080008080800020203F2120000100CD
:104230000000808080808000003324242424190022
:10424000008080E0808000000000001F202000002F
:104250008080000000808000001F202020103F2070
:10426000808080000080808000010E300806010000
:1042700080800080008080800F300C030C300F00A5
:1042800000808000808080000020312E0E312000D0
:10429000808080000080808080818E701806010000
:1042A00000808080808080000021302C222130001E
:1042B00000000000807C020200000000003F40403F
:1042C00000000000FF00000000000000FF000000F0
:1042D0000002027C800000000040403F000000001F
:1042E00000060101020204040000000000000000BA
:1042F00080B540F28A20DFF87C140880DFF874046F
:10430000038832220021012000F0E2FA01BD38B515
:10431000DFF86404C078012804D1DFF85C04007978
:10432000002809D0DFF854040078012873D1DFF8A1
:104330004C04807900286ED1DFF844044078DFF81F
:10434000401449790818DFF83814C9784018FDF787
:10435000DDF9DFF82024C2E90201DFF828140C009F
:10436000DFF81004D0E90201FEF752FD210000F051
:104370004CFDFEF725FDDFF8FC23C2E90201DFF862
:10438000F8034078012804D0DFF8F00340780128D2
:104390001BD1DFF8EC034078FDF7C2F90022DFF80B
:1043A000E833FCF789FF04000D00DFF8D4034079FF
:1043B000FDF7B6F902000B0020002900FDF7BEF959
:1043C000DFF8B023C2E9060155E0DFF8AC038078DE
:1043D000012804D0DFF8A403807801284BD1DFF84E
:1043E000A0034078FDF79CF904000D00DFF890036E
:1043F0004079FDF795F90022DFF89033FCF75CFF78
:1044000002000B0020002900FDF798F9DFF8642373
:10441000C2E906012FE0DFF868030078DFF86013D7
:1044200089790818DFF85813C9784018FDF76EF934
:10443000DFF84023C2E90201DFF848130C00DFF87F
:104440003403D0E90201FEF7E3FC210000F0DDFCBB
:10445000FEF7B6FCDFF81C23C2E90201DFF82003F7
:104460000078DFF81C138979401AFDF74FF9DFF85F
:104470000423C2E90601DFF8FC02D0E9062300208C
:10448000DFF80C13FCF718FFDFF8E822D2E902236B
:10449000FCF7E4FFB74AC2E90801B648D0E90823AF
:1044A0000020DFF8F012FCF707FF04000D00B14810
:1044B000D0E90A2300205FF08041FCF7FDFE2200D6
:1044C0002B00FDF73BFA0022B34BFCF7C7FFA94ACC
:1044D000C2E90801A748D0E90801A64AD2E90A239F
:1044E000FDF72CF9A34AC2E90C01AC480068FEF7BD
:1044F00067FCA04AD2E90823FCF7DEFE04000D00A9
:10450000A7480068FEF75CFC9A4AD2E90C23FCF746
:10451000D3FE22002B00FDF711FA964AC2E90401EE
:104520009448D0E90801934AC2E90A019148D0E9C8
:10453000040101229B4B00F06BFC04D80020994938
:104540008C4AC2E904018B48D0E904010022964B51
:10455000FCF79AFE04D200209349864AC2E904017E
:1045600084480088FDF7DCF8824AD2E90423FDF78D
:10457000E5F8FDF79FF87F4948807E484288002192
:10458000012000F064FA31BD80B57D4880785B2859
:1045900003DB7B4800795B2840DA78488078002884
:1045A0001CD1774880785B2818DB7548C0783228A2
:1045B00014DA734800797249897888420ED27048BB
:1045C00040783C280ADA6E4840793C2806DA012017
:1045D0006A4908700120694948701FE067484078BF
:1045E00000281BD1664800795B2817DB6448C07837
:1045F000322813DA624880786149097988420DD2FD
:104600005F4840783C2809DA5D4840793C2805DA63
:1046100001205A498870012058490870584800788C
:1046200057498979401A00F00AFC102806DB5348E4
:104630000078012802D101205049887101BD5048FD
:1046400000784F49897908184D49C9784018BF2822
:1046500006DB4B48C0783D2802DB01204649087044
:1046600045480078012814D143488078002810D1AB
:10467000434840796F280CDB4148407840494979EC
:10468000884206D201203C49C87001203A4948704E
:1046900017E039480078012813D1374840780028BE
:1046A0000FD1374840786F280BDB354840793449C3
:1046B0004978884205D201202F49C87001202E492F
:1046C00088702D48C07801280AD12D4800783228FA
:1046D00006DA2B488079322802DA0120264908714F
:1046E000704710B500243148808A42F6E061884264
:1046F00002DA0120040020E02C48808A47F24811A9
:10470000884202DA0220040017E02848808A48F232
:10471000E801884202DA032004000EE002210220B0
:1047200000F080FC0020224908700020040021488D
:104730001E49086100201D498882E4B2012C04D082
:1047400017D3032C0FD007D313E04FF43E72002190
:10475000012000F07CF90CE04FF4F0720021012000
:1047600000F075F905E040F2EE220021012000F092
:104770006EF910BD600CFF1FE40CFF1FDC0CFF1F67
:10478000980CFF1F48E1BA3F0000F83F0000F43FDB
:1047900000107C400000204000002440C80BFF1F98
:1047A000C40BFF1F00006940004065C0C00CFF1F24
:1047B000EC0CFF1F0000164438B504000D0064B275
:1047C000002C03D0022C66D049D380E0DFF87003C0
:1047D000006850F08070DFF8681308606DB2002D3B
:1047E0000BD0022D15D00ED3042D1ED017D3062DBD
:1047F00027D020D3072D2AD02FE04FF4806141200D
:10480000FEF790FB2AE04FF480614220FEF78AFB1E
:1048100024E04FF480614320FEF784FB1EE04FF458
:1048200080614420FEF77EFB18E04FF48061642035
:10483000FEF778FB12E04FF480616520FEF772FB13
:104840000CE04FF480616620FEF76CFB06E04FF44D
:1048500080616720FEF766FB00E038E037E0DFF8B4
:10486000E002006850F00070DFF8D41208606DB20A
:10487000002D02D0012D06D00BE04FF44071202016
:10488000FEF750FB06E04FF440712120FEF74AFB93
:1048900000E01CE01BE0DFF8AC02006850F0807024
:1048A000DFF8A01208606DB2002D02D0012D06D0F5
:1048B0000BE04FF440710A20FEF734FB06E04FF4A2
:1048C00040710B20FEF72EFB00E000E0FFE731BD5A
:1048D0002DE9F84F04000D0016001F0064B2002CF3
:1048E0000DD064B2012C02D064B2022C02D16DB2A0
:1048F000022D04DBFC21DFF85002FEF76FFB2900DC
:1049000049B2200040B2FFF757FFDFF840020068CD
:104910004FF47A71484380465FEA1840B0FBF6F0E6
:104920008146002082461FFA89F9484650FA0AF06B
:10493000012802DB1AF1010AF5E75FFA8AFABAF1F7
:10494000080F05DB40F21711DFF8FC01FEF746FB0C
:10495000404630FA0AF0B0FBF6F0814664B2002C13
:1049600003D0022C19D00CD322E01FFA89F919F1D7
:10497000010000FB07F042F21071B0FBF1F083463A
:1049800016E01FFA89F919F1010000FB07F042F265
:104990001071B0FBF1F083460AE01FFA89F919F1B2
:1049A000010000FB07F06421B0FBF1F08346FFE754
:1049B000DFF89C0164B250F824006DB200EBC50032
:1049C000DFF88C1164B251F824106DB201EBC5010F
:1049D000C96831F00401C160DFF8740164B250F8B5
:1049E00024006DB200EBC5002821C1605FFA8AFA8D
:1049F0001AF0070050F00800DFF8541164B251F8C3
:104A0000241008601FFA89F9DFF8440164B250F8F5
:104A10002400C0F808900020DFF8341164B251F887
:104A20002410C864DFF8280164B250F824006DB285
:104A300000EBC5001FFA8BFBC0F810B00020DFF8B8
:104A4000101164B251F824104860BDE8F18F2DE9CF
:104A5000F04104000D0016005FF0000864B2002C65
:104A60000ED064B2012C02D064B2022C02D16DB21D
:104A7000022D05DB4FF4A971DFF8CC00FEF7AEFA8A
:104A800064B2002C03D0022C17D00BD31EE042F2EC
:104A90001170864205D340F25711DFF8AC00FEF7E3
:104AA0009DFA13E042F21170864205D340F25B1189
:104AB000DFF89400FEF792FA08E0652E05D340F285
:104AC0005F11DFF88400FEF789FAFFE7DFF8800066
:104AD00064B250F8240080688046B8F1000FF5D029
:104AE00064B2002C03D0022C15D00AD31CE018F1BC
:104AF000010000FB06F042F21071B0FBF1F007007C
:104B000012E018F1010000FB06F042F21071B0FB58
:104B1000F1F0070008E018F1010000FB06F0642145
:104B2000B0FBF1F00700FFE7DFF8240064B250F8B3
:104B300024006DB200EBC5000761BDE8F081000004
:104B40003C8004403080044030760000F80CFF1FA9
:104B5000200BFF1F2DE9F14D83B00C460398019403
:104B6000C0F3C750FF28154608D10398002740021C
:104B70000CBF4FF001084FF0020812E0012807DADD
:104B800003A800F0DFFA012802DB0027B84608E09E
:104B9000039A7E2161F3DE520392A0F17E074FF06B
:104BA000FF38002101A800F0E1FA06460DB100200F
:104BB000288026B92046002100F000FB12D0B8F171
:104BC000000F12D53FB2012F14D103984FF07C5142
:104BD00000F0F4FA06D0012E0CD14FF03F4100F066
:104BE000EDFA2ED14FF07E500CE1B8F1020F03D157
:104BF000039807E1012E53DB022E08BF204600F088
:104C00000181B8F1010F1AD10398002802D4002CB9
:104C100043D52FE0002C09D4002E3ED14FF0FF31B8
:104C200001A800F0A3FA002837D534E016BB4FF0F6
:104C3000FF3101A800F09AFA00281BD517E0012ED9
:104C400008D1002C3FB202D4012F26DA12E0012F46
:104C500010DA22E0002C0FD466B94FF0FF3101A822
:104C600000F084FA002844BF0398002802D54FF0D2
:104C70000040C7E00020C5E000F0AEFA222101604C
:104C80005EB94FF0FF3101A800F070FA002844BF70
:104C90000398002801D54F48B4E04FF0FF40B1E041
:104CA0000398002848BF002E06D500F095FA212170
:104CB00001606FF00040A5E0002100F093FA38BFDA
:104CC000002608D380F0004003904FF0FF3101A888
:104CD00000F04CFA064603983F4900F095FA06D2D8
:104CE00001464FF0804000F0A1FA03907F1E039927
:104CF0003A48FEF7D5F8834603994FF07E50FEF709
:104D0000CFF80146584600F0FDFA8046414600F0D3
:104D10008DFA8246CDF80CB000F072FB514600F0DF
:104D200085FA0399FEF79AF9414600F07FFA0146A9
:104D30000398FEF7B5F8804638B200F079FB0746D5
:104D40004046274900F0DEFA3946FEF7A9F80190FF
:104D5000214600F06BFA4FF0474100F055FA009001
:104D600042D3204900F03EFA40D9002100F04CFA2D
:104D7000014634BF4FF03F404FF07C50FEF790F8B3
:104D800000F070FB82463846214600F04FFA074695
:104D9000504600F04DFB01463846FEF75FF91049DA
:104DA00000F044FA07464046214600F03FFA3946F3
:104DB000FEF776F800901DB1A5F800A04FF0000AAC
:104DC00052464FF07E51684600F06EFB60B10128FC
:104DD0000CD012E0000080FFF304353F000080BFDC
:104DE0001872313F01000047002001E04FF0FF4002
:104DF000009000F0F1F922210160002E009818BF08
:104E000080F0004004B0BDE8F08D0022A2E6000072
:104E10004FF4001C1CEB410F94BF1CEB430F09E047
:104E200041EA030C50EA4C0C52EA0C0C03D28B42C0
:104E300008BF8242704714BF9942904270470028D1
:104E400048BF404270470000012110F01F0291400E
:104E5000A94A40B2430942F82310704710B440B247
:104E6000002808D50A01A54B40B210F00F042344D6
:104E700003F8042C03E00A01A14B40B21A5410BC01
:104E8000704780B59F480068032101FB00F10020B6
:104E9000FEF76AF90FF24101542000F022FC0121D3
:104EA0004420FFF7DBFF4420FFF7CEFF9548006862
:104EB000052101FB00F10120FEF756F90FF2511117
:104EC000552000F00EFC02214520FFF7C7FF4520CA
:104ED000FFF7BAFF01BD000080B58B48006850F0B5
:104EE00001008949086000F058FC3620FDF746FFB4
:104EF00001281CD185480088B0F5E17F17DD834883
:104F0000008840F28A21884211DA8148007800281E
:104F10000DD180480088652809DB7E480088FA2882
:104F200005DA01207A4908707B487C490861784895
:104F30000078012802D1FFF7D4FB05E0FFF724FB3E
:104F4000FFF77DFBFFF7E3F975480078401C7449D3
:104F5000087073480078072806D10020704908704F
:104F600000F0CCFD00F01DFE6E48007901281CD138
:104F70006C48C088401C6B49C8806A48C08840F6AD
:104F8000C411884211D1002066490870002065498B
:104F9000C870002063494870002062498870002072
:104FA0006049087100205F49C8805F488079012806
:104FB00018D15D488088401C5B4988805A488088A9
:104FC000B0F5FA7F0ED100205749087000205649ED
:104FD0004870002054498870002053498880002080
:104FE0005149887151480078012810D150480088F3
:104FF000401C4F4908804E48008840F29A21884260
:1050000005D100204A49088002204849087001BDA6
:1050100080B54848006850F001004649086000F03B
:1050200010F801BD052211FB02F2434B1A70052254
:1050300011FB02F2414B1A70C0B24200404B1A7091
:10504000704780B53E480078002825D03B4800785E
:10505000002817D03A480078022190FBF1F201FBBA
:105060001200012804D100216F20FDF74EFE03E05D
:1050700001216F20FDF749FE30480078401E2F497E
:10508000087013E02C4800782C4908702C480078F0
:10509000401E2B49087009E001216F20FDF735FE05
:1050A00000202549087000202549087001BD38B549
:1050B0000025002400225221012000F047FE0500B7
:1050C000104800680A2101FB00F10320FEF782F876
:1050D00001225221012000F039FE04000948006835
:1050E0000A2101FB00F10320FEF774F8EDB228025B
:1050F00050FA84F080B232BD00E100E018ED00E02B
:1051000000E400E0F80CFF1F0C710340540DFF1F7A
:10511000EC0CFF1F500DFF1F0000C843C00CFF1F09
:10512000590DFF1FE40CFF1FDC0CFF1F580DFF1F64
:10513000560DFF1F1C7103405C0DFF1F5B0DFF1F11
:105140005A0DFF1F026802F000430121C2F316024C
:10515000002A02D106E05200491E5FEA022CFAD56D
:10516000C2F316021A430260084670470268C2F38F
:10517000C752FF2A06D10068400201D101207047C2
:105180000220704703685B0016D0C2F19602521AE3
:10519000012A11DB182A04DB016801F000410160DB
:1051A00007E0012191400268491E11404A40026017
:1051B00011B14FF0FF3070470020704740EA010CFA
:1051C0005FEA4C0C07D0884205D14FEA400C1CF135
:1051D000807F98BF804270470148FCF723BC0000E5
:1051E000E80DFF1F4FF0807C1CEB400F94BF1CEBC1
:1051F000410F05E040EA010C5FEA4C0C01D281420C
:10520000704718BF884270474FF0807C1CEB400FFE
:1052100094BF1CEB410F05E040EA010C5FEA4C0C27
:1052200001D28842704718BF81427047FF2212EABC
:10523000D05C1DBF12EAD153944593422BE09C44AD
:10524000D30780EA01021A4043EA002043EA012121
:10525000A1FB0030410038BF40007CF17F010BDB37
:10526000FE294ADA5B0842EAC15153EA006373F14E
:10527000004C51EB10207047D1F1080CDCF12001FB
:105280002FDB5B0810FA01F10B4373F1004120FAA8
:105290000CF05041704794451CBF02EAD153934231
:1052A00080EA010202F000421DD0400019D04900FE
:1052B00017D05BB9634514D00902B1FA81F3994064
:1052C000BCEB030CC00140F00040C1E70002B0FAA3
:1052D00080FC10FA0CF0B3EB0C0CC90141F000415A
:1052E000B6E71000704740000AD0490008D010F11E
:1052F000807F94BF11F1807F02E042F0FF40704751
:10530000D043704710B5FF2313EAD0541DBF13EAF2
:10531000D1529C429A4239E0A41ADA0780EA01038A
:10532000134042EA012142EA0020421A3CBF641EB7
:1053300001EB4202090AB2FBF1FE01FB1E2212023E
:10534000B2FBF1F001FB10226EF30F201202B2FB50
:10535000F1FE4EEA00207F3406DDFE2C24DA53EA0B
:10536000500050EBC45010BDD4F1020401FB1E22CA
:1053700040F08071192C1DDC21FA04F0C4F12004E6
:10538000A140114371F10042584110BD9C421ABF27
:1053900003EAD1529A420FE080EA010E0EF0004378
:1053A000400004D0490016D143F0FF4010BD490031
:1053B00008BFD343180010BD9C4205D1D21AF7D0C4
:1053C00001F00041484010BD4A0212BF0846484063
:1053D00000F0004010BD4AB90902B1FA81F29140D3
:1053E00044B1A418C00140F000409EE7C90141F05B
:1053F000004152420002B0FA80F4A040141B94E72E
:1054000010B5044607482146FFF710FF0649FDF78F
:1054100047FD2146FFF70AFFBDE810400349FDF7AD
:105420003FBD00001502993E11AECC3EC0AA2A3FF6
:10543000002840F10980F446404200F005F850F0A1
:1054400000406047002800BF0AD0B0FA80F18840D1
:10545000D1F19D01C905020672F1004241EB102015
:10546000704700004100090E7F3915D4D1F11F01AA
:1054700014D4400007D2C00140F00040C84048BFEB
:105480006FF000407047C00140F00040C8404CBF82
:105490004FF00040404270470020704700424FF0FC
:1054A000004058BFC04370472DE9F04D04460D46FB
:1054B0002768C7F3C751FF29164609D011B14FF02D
:1054C000FF3009E078020CBF00206FF0010003E01C
:1054D000780214BF02200120C5F3C751FF2909D06B
:1054E00011B14FF0FF3109E069020CBF00216FF0EC
:1054F000010103E0690214BF02210121020048BF3B
:1055000000293ED4022800F0C680022908BF256089
:1055100018D039B938464FF0FF41FFF74FFE0AD097
:10552000256038E0012910D138465C49FFF746FE76
:1055300018BF256040D1FFF74FFE212101606FF0B9
:10554000004020600220BDE8F08D70B92560314632
:10555000204600F027FD040018BF012C40F09A807F
:10556000FFF73AFE2221016094E038464FF0FF41F8
:10557000FFF724FE0AD108462946FFF757FE2060B0
:105580001AE038464649FFF73FFE07D20020294679
:10559000FFF74CFE20600020BDE8F08D4149FFF789
:1055A00021FE0CD84FF0FF402946FFF73FFE206058
:1055B000FFF712FE222101600120BDE8F08D3A487C
:1055C0003946FFF733FE0021FFF71EFE34BF4FF0D0
:1055D0003F414FF07C51FDF763FCFFF743FF8046EE
:1055E000FFF726FF824631485146FFF71FFE01466E
:1055F0003846FDF733FD07462D485146FFF716FEA6
:1056000001463846FDF72AFD4FF03341FFF7EAFD2A
:10561000824603D82749FFF7F7FD2DD35146FFF700
:1056200005FE834624485946FFF700FE07462348F7
:105630005946FFF7FBFD4FF07C51FDF731FC514619
:10564000FFF7F4FD824638465146FDF729FC4FF03E
:105650007E51FDF725FC834638465146FDF7FEFC9A
:105660004FF07E51FDF71CFC01465846FFF74AFEFD
:105670002946FFF7DBFD0546256006EB08012046BD
:1056800000F090FC040018BF012C03D1FFF7A4FD2B
:10569000222101602046BDE8F08D00BF000080FFA0
:1056A000000065C3010065433BAAB83F0060313F7D
:1056B000BFBF9039010000339EBFCC3D1354083C5E
:1056C00010B504004FF4007094FBF0F100FB1140A2
:1056D000002803D01E210B48FDF780FC0A48046017
:1056E00010BD38B504000D0007480068074988421E
:1056F00003D030210348FDF771FC044864B240F840
:10570000245031BD4877000008ED00E00000FF1F85
:1057100080B5092000F0A4FC0C2000F0A1FC0D20B5
:1057200000F09EFC2A2000F09BFC2B2000F098FC4F
:105730002C2000F095FC2D2000F092FC2E2000F093
:105740008FFC01BDF0B4002400273E004F1EBE4276
:1057500016DA3200771C3D008D4208DA641C475D82
:1057600010F802C0674500D22A006D1CF4E70A2E2B
:1057700006D0875D3B00875C87558354761CE5E740
:10578000077A90F809C01CEB0707807A38180327BE
:1057900090FBF7F0C0B2F0BC704710B5A4B01EA8E3
:1057A000142100F0B9FD19A8142100F0B5FD14A8CA
:1057B000142100F0B1FD0FA8142100F0ADFD0AA8DE
:1057C000142100F0A9FD05A8142100F0A5FD6846EC
:1057D000142100F0A1FD0024142C07DA0021092077
:1057E00000F045FD69460855641CF5E70024142CBB
:1057F00007DA00210C2000F03AFD1EA90855641CB0
:10580000F5E70024142C07DA00210D2000F02FFD0D
:105810000FA90855641CF5E70024142C07DA0021B1
:105820002B2000F024FD0AA90855641CF5E700248C
:10583000142C07DA00212C2000F019FD14A90855BA
:10584000641CF5E70024142C07DA00212D2000F059
:105850000EFD05A90855641CF5E70024142C07DA91
:1058600000212E2000F003FD19A90855641CF5E75E
:1058700014211EA8FFF766FF8E490870142119A88D
:10588000FFF760FF8B498870142114A8FFF75AFFB7
:105890008849487014210FA8FFF754FF8549C87044
:1058A00014210AA8FFF74EFF82494871142105A868
:1058B000FFF748FF7F49087114216846FFF742FF50
:1058C0007C4988717B48807B7A490978884203D378
:1058D0000120784908700EE0764800787549897B88
:1058E000401A64214843FF2190FBF1F07149897B04
:1058F000401A704908706F480078002802D06D483F
:10590000007800E001206B4908706A48C07B694953
:105910008978884203D30120664988700EE0654883
:1059200080786449C97B401AC8214843FF2190FB15
:10593000F1F06049C97B401A5E4988705D48807803
:10594000002802D05B48807800E001205949887027
:105950005848007C57494978884203D3012055496B
:1059600048700EE0534840785249097C401AC821DB
:105970004843FF2190FBF1F04E49097C401A4D4904
:1059800048704C484078002802D04A48407800E0EF
:105990000120484948704748407C4649C9788842B8
:1059A00003D301204349C8700EE04248C078414902
:1059B000497C401A64214843CF2190FBF1F03D49D6
:1059C000497C401A3B49C8703A48C078002802D048
:1059D0003848C07800E001203649C8703548807CDE
:1059E00034494979884203D30120324948710EE095
:1059F000304840792F49897C401AC8214843FF210B
:105A000090FBF1F02B49897C401A2A4948712948BA
:105A10004079002802D02748407900E0012025493C
:105A200048712448C07C23490979884203D3012066
:105A3000204908710EE01F4800791E49C97C401AB0
:105A4000C8214843FF2190FBF1F01A49C97C401A54
:105A50001849087117480079002802D015480079C4
:105A600000E00120134908711248007D114989792D
:105A7000884203D301200F4988710EE00D488079D8
:105A80000C49097D401A64214843FF2190FBF1F045
:105A90000849097D401A074988710648807900281D
:105AA00002D00448807900E001200249887124B0C6
:105AB00010BD0000980CFF1F80B54A484A49086194
:105AC00000234FF4FA5201210020FEF701FF0023CA
:105AD0004FF4FA5202210020FEF7FAFE01220021C3
:105AE0006C20FDF7BBF801214520FDF71BFA0022D1
:105AF0004FF6FF71022000F013FC01BD10B500F05D
:105B00004EFCFFF79FFC3849086000F055FC374811
:105B1000007801280BD13448808AFFF793FC324982
:105B20000968FDF7BDF9FFF79DFC2F4988822E48D3
:105B300000692D490968FDF791FA2B4948602A4808
:105B4000406829498968FDF789FA29490968FFF7FA
:105B50006DFB04002748016823484068FFF766FB97
:105B60002100FDF79DF92049C968FDF799F91E4903
:105B7000C8601D4840681C4988601B48C0681E49B1
:105B8000FFF730FB03D81D481749C86008E01648E6
:105B9000C0680021FFF738FB02D800201249C86016
:105BA00010BD80B5164890F9000000280FD10022E2
:105BB00001210020FEF74BFF0B48C068FFF752FCA5
:105BC000020092B202210020FEF741FF09E000220C
:105BD00001210020FEF73BFF002202210020FEF7FA
:105BE00036FF01BD00001644C00CFF1FEC0CFF1F68
:105BF000BC0BFF1FC00BFF1F013C1C46003C1C469A
:105C00000C0CFF1F2DE9F04FA1B004000D0064B291
:105C1000002C12D1DFF87403006850F04000DFF868
:105C20006C13086040F223216820FDF77BF940F2F5
:105C300023216920FDF776F90FE0D448006850F081
:105C40008000D249086040F223618120FDF76AF9A3
:105C500040F223618020FDF765F96846CC49802237
:105C6000FBF7C4FACB4800684CF25131884202DAA3
:105C70000020060009E0C7480068C749884202DAE8
:105C80000120060001E002200600C24800684FF42F
:105C90007A714843F6B2711C6943B0FBF1F75FF0CB
:105CA000400B4FF6FF7A5FFA8BFBBBF1000F1BD066
:105CB000BBF1010BBFB268465FFA8BFB30F81B00EB
:105CC000381AFFF7BCF881461FFA89F9B9F1000FBD
:105CD00001D1D84608E04846514680B289B2884290
:105CE000E1D2D846CA46DEE718F03F0050EA8610F7
:105CF000AA4964B251F8241048708020A74964B2C0
:105D000051F824108870A34800684FF47A71484312
:105D1000F6B2711C6A465FFA88F832F818205143CF
:105D200090FBF1F021B0BDE8F08F000081B0502071
:105D3000ADF80000BDF80000411EADF8001080B2C3
:105D4000002801D000BFF5E701B07047F8B50400A6
:105D50000D001600280603D5CF219148FDF73EF926
:105D60008E4864B250F82400807850F030008B499F
:105D700064B251F8241088706800884964B251F800
:105D800024100871854864B250F82400C078800758
:105D9000F8D5824864B250F82400C07850F0020070
:105DA0007E4964B251F82410C8707C4864B250F83F
:105DB00024000671794864B250F82400C078800746
:105DC000F8D5764864B250F82400C07850F002004C
:105DD000724964B251F82410C870704864B250F827
:105DE0002400807850F004006C4964B251F824100B
:105DF0008870680050F00100684964B251F82410BE
:105E00000871664864B250F82400C0788007F8D55D
:105E1000624864B250F82400C07850F002005F4934
:105E200064B251F82410C8705C4864B250F8240081
:105E3000807810F0EF00594964B251F8241088704E
:105E4000564864B250F82400807850F00800534956
:105E500064B251F824108870504864B250F824009D
:105E6000007907004D4864B250F82400C0788007DC
:105E7000F8D54A4864B250F82400C07850F00200C7
:105E8000464964B251F82410C870444864B250F8CE
